:10000000AAC100000C94BE120C94E9120C941413B3
:100010000C943F130C946A130C9495130C94C01316
:100020000C94EB13C9C10000C7C10000C5C100009A
:10003000C3C100000C945D1ABFC10000BDC1000027
:10004000BBC10000B9C10000B7C10000B5C10000CC
:10005000B3C10000B1C10000AFC100000C94161480
:10006000ABC100000C94F4160C942A17A5C1000033
:10007000A3C10000A1C100009FC100009DC10000FC
:100080009BC1000099C1000097C1000095C100000C
:100090000C9480170C94B6178FC100008DC100001E
:1000A0008BC1000089C1000087C1000085C100002C
:1000B00083C1000081C100007FC100007DC100003C
:1000C0007BC1000079C1000077C100000C940C18BE
:1000D0000C94421871C100000C9498180C94CE181E
:1000E0006BC100006E12381240124C1259127A1273
:1000F0008712AE12A412A612A812AA12B012B2123D
:1001000047154A1539153D15431581154E155215DC
:1001100058155C15601566156A156E1581157415F0
:1001200078157C15F122AF2419251C25F3232624EC
:10013000B022D1229422F624E524F2241C251C2589
:100140001C257F2200000A0B02090C0D0E08070374
:10015000040100000000000000000000000000009A
:10016000000000000000000000000000000000008F
:10017000121110000000000000000000000000004C
:100180000000000000000000000001021020200814
:1001900008102040102040800201020108040201E2
:1001A0000102040810204080804020100804020151
:1001B00080040201804020100804020108040201AA
:1001C0000102040810204080010204081020408031
:1001D00005050505070508080808020202020A0AC3
:1001E00008080404040401010101010101010303E1
:1001F000030303030303040707070C0C0C0C0C0C8C
:100200000C0C0202020206060606060606060B0B88
:100210000B0B0B0B0B0B000020002300260029000A
:100220002C002F003200000100000301060109012B
:1002300000002200250028002B002E003100340091
:1002400002010000050108010B0102001D3A27749C
:10025000694E53E8F5D2CF9C81A6BBCDD0F7EAB961
:10026000A4839E25381F02514C6B76879ABDA0F35C
:10027000EEC9D46F7255481B06213C4A57706D3E3B
:10028000230419A2BF9885D6CBECF1130E2934674D
:100290007A5D40FBE6C1DC8F92B5A8DEC3E4F9AA23
:1002A000B7908D362B0C11425F78659489AEB3E020
:1002B000FDDAC77C61465B0815322F5944637E2DF9
:1002C00030170AB1AC8B96C5D8FFE2263B1C015211
:1002D0004F6875CED3F4E9BAA7809DEBF6D1CC9FD9
:1002E00082A5B8031E3924776A4D50A1BC9B86D5E0
:1002F000C8EFF24954736E3D20071A6C71564B18C3
:1003000005223F8499BEA3F0EDCAD735280F1241CC
:100310005C7B66DDC0E7FAA9B4938EF8E5C2DF8C9A
:1003200091B6AB100D2A3764795E43B2AF8895C69B
:10033000DBFCE15A47607D2E3314097F6245580B80
:1003400016312C978AADB0E3FED9C4005317DF17DE
:100350006B18F718631911241FBECFEFD1E2DEBF6F
:10036000CDBF00E00CBF13E0A0E0B2E0E6E9F5E5A8
:1003700000E00BBF02C007900D92AA37B107D9F772
:1003800027E0AAE7B3E001C01D92AB32B207E1F764
:1003900011E0CBEAD1E000E006C021970109802FEF
:1003A000FE010E944D29C63AD10780E00807A9F74F
:1003B0000E94A2260C94C92A23CE8F929F92AF92BC
:1003C000BF92CF92DF92EF92FF920F931F9386EF2F
:1003D000C82E86E0D82E9AEFE92E96E0F92E0EEF81
:1003E00016E02EE732E04AE752E061E872E080E88A
:1003F00092E00E9407112EE732E04AE752E061E8FE
:1004000072E080E892E00E94CD1181E090E00E94CD
:100410007910409116075091170760911807709155
:10042000190780E090E00E9475108090220790905C
:100430002307A0902407B090250720E030E040E893
:100440005FEBC501B4010E949327882331F1C0906E
:100450001607D0901707E0901807F0901907A7012A
:100460009601C501B4010E942E274B015C0120E0DA
:1004700030E040E054E3C701B6010E94B5289B017B
:10048000AC01C501B4010E94B128181634F087E907
:1004900092E09093010780930007809126078823BC
:1004A00031F087E992E090930107809300078091F3
:1004B0001A0790911B07A0911C07B0911D07BC0162
:1004C000CD016F5F7F4F8F4F9F4F60931A077093DF
:1004D0001B0780931C0790931D070E94FF27209104
:1004E0001E0730911F0740912007509121070E945D
:1004F000B528609316077093170780931807909399
:1005000019071F910F91FF90EF90DF90CF90BF9050
:10051000AF909F908F900895CF93DF93E0E0F7E046
:1005200087E2DF011D928A95E9F780E090E0A0E87C
:10053000BFEB82A393A3A4A3B5A38DEC9CECACE486
:10054000BEE3868F978FA0A3B1A385E990E4ACEEBC
:10055000BCEA84839583A683B78384EC94E4ABE4FC
:10056000B7E580879187A287B3878AE797E6A1EEF0
:10057000B6E084879587A687B78786EF90EEAAE4D2
:10058000B8E0808B918BA28BB38BA0E9B3E0B383EF
:10059000A2838EE893E011969C938E9387E193E07B
:1005A00090938F0380938E0384E197E015969C933C
:1005B0008E93149784E097E013969C938E931297F2
:1005C00086E197E017969C938E93169786E0AAEFA4
:1005D000B6E0ED0119928A95E9F71092F6061092AD
:1005E000F7061092F8061092F906AAE7B3E084E144
:1005F000ED0119928A95E9F7B58BA48B8EE090E016
:1006000011969C938E938EE592E013969C938E9315
:10061000129782E492E015969C938E93149786E24B
:1006200092E017969C938E9316978AE092E0199623
:100630009C938E931897DF91CF9108950895EF9230
:10064000FF920F931F93CF93DF93DC01EA01F9012F
:1006500014968D919C91159712960D911C9113975C
:10066000080F191F2881398118964D915C911997AF
:100670004217530728F04D915C911197452B39F1A2
:100680007801E21AF30A18964D915C911997481B6C
:10069000590B4E0D5F1D4617570794F1A901460FE0
:1006A000571F40175107E0F0F182E0823383228325
:1006B0006E197F0975836483161617061CF4382F8C
:1006C000292F02C030E020E03683278313C018961C
:1006D0008D919C911997821B930B8617970784F035
:1006E000718360833383228315821482178216827A
:1006F00088819981680F791F7983688380E001C0C0
:1007000081E0DF91CF911F910F91FF90EF900895BD
:10071000CF92DF92EF92FF92CF93DF936B017C0138
:1007200084E48C9DE0018D9DD00D1124C456DC4FD6
:100730008AA99BA9009721F00E94182A1BAA1AAA2D
:1007400084E48C9DF0018D9DF00D1124E456FC4F46
:1007500086A997A9009711F00E94182A84E48C9D1D
:10076000F0018D9DF00D1124E456FC4F138A128A7E
:10077000168A178A108E118E128E138E148E158E75
:10078000168E178E10A211A281E090E093A382A38F
:1007900015A214A216A217A210A611A613A612A69D
:1007A00015A614A616A617A610AA11AA13AA12AA6D
:1007B00015AA14AA17AA16AA11AE10AE12AE13AE3D
:1007C00014AE15AEDF01DE961D921D921D921C9295
:1007D0001397EE5BFF4F11821082DF91CF91FF9054
:1007E000EF90DF90CF9008950F931F93CF93DF93F7
:1007F000EB01DC018D919C91FC01A681B781E88120
:10080000F98123E0EE0FFF1F2A95E1F712962D9153
:100810003C911397E20FF31F00811181AC85BD85D8
:100820009D01220F331FDC0112968D919C9113972D
:10083000D901A80FB91F8D919C9124813581232B5B
:1008400019F461E070E002C062E070E0689F90011E
:10085000699F300D789F300D112488859985289FD8
:10086000B001299F700D389F700D1124EC81FD811E
:100870002E9FC0012F9F900D3E9F900D1124800F41
:10088000911FFA019183808373836283DF91CF91FB
:100890001F910F9108952F923F924F925F926F9206
:1008A0007F928F929F92AF92BF92CF92DF92EF9200
:1008B000FF920F931F93CF93DF9300D000D0CDB75B
:1008C000DEB7DC011496ED91FC9115970190F08153
:1008D000E02D808591859A838983A281B381BC8331
:1008E000AB83FB0181909190A190B1908F01C12CBD
:1008F000D12C7601C814D904EA04FB040CF05FC0C3
:10090000D80114964D905D906D907C901797189635
:100910004D915D916D917C911B97F8017096FE83CE
:10092000ED83F801A081B18183E0AA0FBB1F8A95F6
:10093000E1F7E981FA8182819381A80FB91F2D9097
:100940003C901197F80124853585220F331F8B8148
:100950009C81280F391FF9010081118114968D9116
:100960009C911597892B19F481E090E002C082E0F8
:1009700090E0809F9001819F300D909F300D112459
:10098000249F8001259F100D349F100D1124249D5C
:10099000C001259D900D349D900D1124A8016D81FD
:1009A0007E81820D931D0E94B02A8D819E81080F49
:1009B000191F9FEFC91AD90AE90AF90A9BCF26968F
:1009C0000FB6F894DEBF0FBECDBFDF91CF911F9160
:1009D0000F91FF90EF90DF90CF90BF90AF909F90DE
:1009E0008F907F906F905F904F903F902F900895E1
:1009F000CF93DF93DB01AE57BD4F2C91222369F0DB
:100A000024E4269FF001279FF00D1124E456FC4FAB
:100A1000EF0119922A95E9F71C9224E4269FF00130
:100A2000279FF00D1124E456FC4F14821582168284
:100A300017821186108613861286118A108A1786ED
:100A40001686DF91CF9164CE2F923F924F925F92A4
:100A50006F927F928F929F92AF92BF92CF92DF92CE
:100A6000EF92FF920F931F93CF93DF93CDB7DEB733
:100A700028970FB6F894DEBF0FBECDBF6B017C0187
:100A80001A0184E48C9D90018D9D300D1124245613
:100A90003C4FF90184819581A681B781892B8A2BEE
:100AA0008B2B09F4B8C0A12CB12C412C512C320154
:100AB00038872F83C90104969A838983D9011896B0
:100AC000BC83AB83E981FA8180819181A281B3816A
:100AD000481659066A067B0694F5AB81BC81ED91F8
:100AE000FC91EA0DFB1D228133818901812C912C1F
:100AF00082149304C4F4D801ED91FC91309769F00D
:100B0000848195812D833E830E94182AF80180817B
:100B100091810E94182A3E812D81FFEF8F1A9F0A32
:100B20000E5F1F4FE5CFC9010E94182A8FEF481AA8
:100B3000580A680A780A94E0A90EB11CC3CFAF81A5
:100B4000B88518968D919C9119970E94182AEF816B
:100B5000F88582859385892B59F1A12CB12C812CA4
:100B6000912C84E48C9D80018D9D100D11240A55DB
:100B70001C4F8214930484F4D801ED91FC91EA0D8A
:100B8000FB1D848195810E94182ABFEF8B1A9B0A56
:100B9000EEE0AE0EB11CEDCF84E48C9DF0018D9D96
:100BA000F00D1124E456FC4F828593850E94182A8B
:100BB00084E48C9D90018D9D300D11248901045693
:100BC0001C4FD80150968D919C9151970E94182AE4
:100BD000F801868597850E94182AC701B60198DD1D
:100BE000C701B60128960FB6F894DEBF0FBECDBF81
:100BF000DF91CF911F910F91FF90EF90DF90CF90F9
:100C0000BF90AF909F908F907F906F905F904F902C
:100C10003F902F90EDCE28960FB6F894DEBF0FBE12
:100C2000CDBFDF91CF911F910F91FF90EF90DF909B
:100C3000CF90BF90AF909F908F907F906F905F907C
:100C40004F903F902F90089524E4269FF001279F16
:100C5000F00D1124E456FC4F828993890497029782
:100C600058F485E090E0938B828B8FEF9FEFDC014F
:100C7000828F938FA48FB58F08952F923F924F92BA
:100C80005F926F927F928F929F92AF92BF92CF921C
:100C9000DF92EF92FF920F931F93CF93DF93CDB725
:100CA000DEB7E0970FB6F894DEBF0FBECDBF9AA3B4
:100CB00089A31B016A012801390184E4849D800114
:100CC000859D100D1124980124563C4F7901D901BE
:100CD0004D925D926D927C921397AB01C301B2016C
:100CE000B3DEF801E056FC4FD6014D915D916D9158
:100CF0007D918D01CA01408351836283738364E0D7
:100D000070E00E946929F70191878087892B09F497
:100D10009FC11E8E1D8E198E1A8E1B8E1C8EF8A2E0
:100D2000EF8E97012C5F3F4F38A72FA32C5F3F4FCB
:100D30003AA729A7EFA1F8A580819181A281B3816B
:100D4000298D3A8D4B8D5C8D281739074A075B0733
:100D50000CF0E7C0A9A5BAA58D919C912D8D3E8D73
:100D6000280F391F3A8B298BD801ED91FC91EE0F9A
:100D7000FF1FA9A1BAA18D919C91E80FF91F808155
:100D80009181F90191838083D80114962D913D9131
:100D90004D915C9117972BA33CA34DA35EA3085FD5
:100DA0001F4F62E070E0C1010E946929E989FA8958
:100DB00093838283892B09F44BC11D8A1E8A1F8A63
:100DC000188E2D893E894F89588D8BA19CA1ADA18C
:100DD000BEA1281739074A075B070CF08FC0D8015E
:100DE000ED90FC90EE0CFF1CE989FA89C280D3805B
:100DF000CE0CDF1C68E070E081E090E00E94692981
:100E0000D6018D939C93E989FA8982819381FC01B3
:100E1000EE0DFF1DC080D180C114D10409F418C1AA
:100E2000F80184819581A681B781F6018083918341
:100E3000A283B383085F1F4F181619061A061B06F4
:100E400034F01C8A1B8A812C912C54010CC064E064
:100E500070E00E946929D60115969C938E93149791
:100E6000892B79F7F5C0F60180819181A281B38148
:100E700088169906AA06BB06A4F5F601E480F5805B
:100E80002B893C89E20EF31EF801DE01119680E108
:100E900001900D928A95E1F7005F1F4FA701BE01F7
:100EA0006F5F7F4FA9A1BAA114968D919C91159760
:100EB0009BDCF60126813781D70112968D919C919A
:100EC0001397820F931F97838683BFEF8B1A9B0A1A
:100ED000AB0ABB0A2B893C892C5F3F4F3C8B2B8B89
:100EE000C2CF2D893E894F89588D2F5F3F4F4F4F7D
:100EF0005F4F2D8B3E8B4F8B588F63CF298D3A8D53
:100F00004B8D5C8D2F5F3F4F4F4F5F4F298F3A8F37
:100F10004B8F5C8F2D8D3E8D2C5F3F4F3E8F2D8FE5
:100F200009CF6EE070E0C1010E946929AF8DB8A1C0
:100F30001B969C938E931A97812C912CA12CB12CEB
:100F4000C12CD12C24E4249DC001259D900D112499
:100F50009C012A553C4F3A8B298B21E030E0A214AA
:100F6000B3040CF04DC0D8014D915D916D917D9110
:100F70008D01E989FA89E080F180E80CF91C77FDA0
:100F800067C0D70111963C932E9341155105610519
:100F90007105A9F0CA012FA738AB4BA75CA76DA7B5
:100FA0007EA70E948329F701958384832FA538A902
:100FB0004BA55CA56DA57EA5892B31F449C0D70151
:100FC00015961C921E921497F701538342838481D5
:100FD000958197838683918780871386128681E027
:100FE00090E0452B462B472B11F480E090E0C80E93
:100FF000D91EFFEFAF1ABF0A4EE0840E911CAFCF8F
:1010000084E4849D8001859D100D112404561C4F9D
:10101000D8011D961C921E921C97C60133E0880FC2
:10102000991F3A95E1F70E948329F801918B808BF3
:10103000892B71F0C601880F991F0E948329D8015E
:101040001F969C938E931E97892B11F080E005C00C
:10105000A101C301B201F8DC81E0E0960FB6F8947B
:10106000DEBF0FBECDBFDF91CF911F910F91FF90DB
:10107000EF90DF90CF90BF90AF909F908F907F9038
:101080006F905F904F903F902F9008952F923F92D6
:101090004F925F926F927F928F929F92AF92BF9288
:1010A000CF92DF92EF92FF920F931F93CF93DF9334
:1010B000CDB7DEB768970FB6F894DEBF0FBECDBFD1
:1010C0009C8B8B8BDB0149015A0124E4289DC001D4
:1010D000299D900D11249C0124563C4F79012D919E
:1010E0003C911197F701358B248BFC01EE54FC4F9A
:1010F00014964D915D916D917C911797408351832A
:1011000062837383FC01EA54FC4F18964D915D9104
:101110006D917C911B974083518362837383FC01A3
:10112000E654FC4F1C964D915D916D917C911F97FB
:101130004083518362837383FC01E653FC4F5096D6
:101140005C91509751964C91519752963C91529781
:1011500053962C91539750834183328323838D017F
:101160000C5E1F4F852F942F181619060CF068C0BF
:10117000880F991F880F991F0E948329D701D39642
:101180009C938E93D297892B09F4BCC0212C312CCF
:10119000412C512C32019701225D3F4F3E8B2D8B0C
:1011A0002C5F3F4F388F2F8B2E5F3F4F3A8B298B11
:1011B000B301A2012FEF421A520A620A720AED89A4
:1011C000FE8980819181A281B381481759076A07FE
:1011D0007B074CF5AF89B88DCD90DC90C20CD31C49
:1011E000F801DE01119680E101900D928A95E1F7F8
:1011F000005F1F4FA601BE016F5F7F4FEB89FC8927
:1012000084819581F1DAA989BA898D919C91119790
:10121000F60122813381820F931F8D939C93F4E01A
:101220002F0E311CC5CFD701D4968D919C91D597A7
:101230000E948329F70197AB86AB892B09F462C022
:10124000F80180819181A281B38124E4289DF0017D
:10125000299DF00D1124E456FC4FAC01BD014D7FDA
:1012600021E030E0452B462B472B11F020E030E009
:1012700033A322A324E4289DF001299DF00D11241D
:10128000E456FC4F0197A109B10921E030E0029733
:10129000A105B10510F020E030E035A324A384E4DB
:1012A000889DF001899DF00D1124CF018E539C4F34
:1012B000D80114964D915D916D917C911797DC0149
:1012C0004D935D936D937C931397E456FC4F868DFD
:1012D000978DA0A1B1A1B7FF10C0B095A095909532
:1012E00081959F4FAF4FBF4F82AF93AFA4AFB5AFC4
:1012F000168E178E10A211A20AC012AE13AE14AE33
:1013000015AE05C0C501B40103DA81E001C080E07B
:1013100068960FB6F894DEBF0FBECDBFDF91CF91B8
:101320001F910F91FF90EF90DF90CF90BF90AF9003
:101330009F908F907F906F905F904F903F902F90F5
:101340000895CF92DF92EF92FF92CF93DF931092A6
:10135000240424E4269FF001279FF00D1124E45675
:10136000FC4F15A614A620E030E0C12CD12CDF01E3
:101370001A96C1E0D0E0C416D506D4F4ED91FC91E4
:101380001197E20FF31FE280F3801E141F0454F440
:10139000E480F580F782E682F186E0861386128685
:1013A000D183C083EFEFCE1ADE0A225F3F4FE3CF37
:1013B00024E4269FF001279FF00D1124E456FC4FF2
:1013C00013A612A611AE10AEDF01DE961D921D927D
:1013D0001D921C92139782E090E0938B828BDF9199
:1013E000CF91FF90EF90DF90CF90089524E4269F57
:1013F000F001279FF00D1124E456FC4F138A128A46
:1014000023CB24E4269FF001279FF00D1124E456FE
:10141000FC4F8289938981309105C8F08530910510
:1014200018F0059769F008958FEF9FEFDC01828F28
:10143000938FA48FB58F85E090E0938B828B089576
:101440008FEF9FEFDC01828F938FA48FB58F08956C
:1014500024E4249FF001259FF00D1124E456FC4F55
:101460002EE0AC01249FC001259F900D1124028421
:10147000F385E02DE80FF91F81E080932404828535
:10148000938591878087408551852681378181E0CA
:1014900090E04217530711F080E090E09183808341
:1014A00008952F923F924F925F926F927F928F9208
:1014B0009F92AF92BF92CF92DF92EF92FF920F93E3
:1014C0001F93CF93DF93CDB7DEB7C255D1090FB6C7
:1014D000F894DEBF0FBECDBF21969FAF8EAF219790
:1014E0004BA75CA76DA77EA74801590184E4889D9E
:1014F0008001899D100D1124F801E456FC4F2285CE
:10150000338527963FAF2EAF27978289938902971D
:1015100009F060C186A597A5A0A9B1A9892B8A2B3E
:101520008B2B29F484E090E0938B828B53C18489C8
:10153000958921964EAD5FAD21974817590709F05F
:1015400049C186A997A99AAB89AB1EAE1DAE19AE4B
:101550001AAE1BAE1CAE8F01DF019E962996BFAF5F
:10156000AEAF2997F2962B96FFAFEEAF2B9798016F
:10157000285C3F4F2D963FAF2EAF2D97A8014A5DB7
:101580005F4F2F965FAF4EAF2F97C801829661963F
:101590009FAF8EAF61971A976396BFAFAEAF639759
:1015A0002996EEADFFAD299780819181A281B3810B
:1015B00029AD3AAD4BAD5CAD281739074A075B073B
:1015C0000CF0E7C02B96EEADFFAD2B97808191819B
:1015D0002DAD3EAD280F391F3EAB2DABD901129674
:1015E0000D90BC91A02D2396BFAFAEAF2397B695BB
:1015F000A795B695A7952596BFAFAEAF25972D9623
:10160000EEADFFAD2D9780819181892B09F496C0B5
:101610002F96AEADBFAD2F97CD90DD90ED90FC90A5
:1016200029A83AA8F9010190F081E02DF8ABEFA7C5
:1016300018AE1FAA8FA998AD2596AEADBFAD259760
:101640008A179B070CF07AC06196AEADBFAD61976B
:101650008D919C91892B69F1EFA5F8A9408051806B
:1016600062807380A7019601C301B2010E94B12874
:1016700087FD0BC0A7019601D1016D917D918D91E0
:101680009C910E94932787FD8CC0A7019601C301FE
:10169000B2010E94B128181664F4A7019601F10165
:1016A00060817181828193810E949327882309F44C
:1016B00078C06396AEADBFAD63978D919C91892B39
:1016C00069F1EFA5F8A94080518062807380A7017D
:1016D0009601C301B2010E94932787FF0BC0A701A7
:1016E0009601D1016D917D918D919C910E94B128BF
:1016F00087FF57C0A7019601C301B2010E9493273B
:1017000081110CC0A7019601F10160817181828174
:1017100093810E94B12818160CF443C02FA938AD4C
:101720002F5F3F4F38AF2FAB34E0230E311C4FA556
:1017300058A94C5F5F4F58AB4FA77CCFEDA9FEA9CE
:101740006081718123964EAD5FAD239789A99AA9D7
:101750000E94B02A25968EAD9FAD2597880F991FC0
:10176000880F991F29A93AA9280F391F3AAB29AB2D
:1017700089AD9AADABADBCAD0196A11DB11D89AFD0
:101780009AAFABAFBCAFADADBEAD1496BEAFADAF13
:1017900007CF81E090E0D801D9969C938E93D8979B
:1017A00019C084E4889DF001899DF00D1124E45650
:1017B000FC4F868D978DA0A1B1A1892B8A2B8B2BF5
:1017C00009F064C284E090E0938B828B86AD97AD84
:1017D00093A782A784E4889DF001899DF00D1124D0
:1017E000E456FC4F828993898230910571F482AD71
:1017F00093ADA4ADB5AD181619061A061B060CF06C
:101800004CC2CC24C394D12C05C0049709F045C226
:10181000C12CD12C8EE02196EEADFFAD21978E9F8D
:1018200070018F9FF00C112427962EAD3FAD2797A6
:10183000E20EF31ED70112964D915C91139741155C
:10184000510509F42AC216968D919C9117979AA773
:1018500089A7FE01319684E1DF011D928A95E9F79F
:10186000898A9A8AAB8ABC8AC114D10409F457C008
:1018700084E4889DF001899DF00D1124E456FC4F0D
:10188000DF01DE964D905D906D907C9082AD93ADC2
:10189000A4ADB5AD481659066A067B0609F03FC0EF
:1018A000F701648175810084F185E02D8481958143
:1018B000A681B7819C018D8B9E8BAF8BB88F285FE3
:1018C0003F4F3E8B2D8BD70118968D919C91199788
:1018D000280F391F19963C932E93189718968D91BF
:1018E0009C911997460F571F841B950B97FD06C0B7
:1018F000860F971F19969C938E93189784E4889D62
:10190000F001899DF00D1124E652FC4FB1E04B1A15
:1019100051086108710840825182628273829E017F
:101920002B5E3F4FAE01475D5F4F64E170E0C70142
:101930000E941F03082F10E00115110509F091C145
:101940008CE090E0A0E0B0E08D839E83AF83B88709
:101950009E01235E3F4FAE01475D5F4F64E070E044
:10196000C7010E941F03082F10E00115110509F09F
:1019700078C180E190E0A0E0B0E08D839E83AF83EA
:10198000B8874D8D5E8DBE01655D7F4F8F8D98A1AF
:101990000E94B02A8BA19CA1009761F06D8D7E8D75
:1019A000EBE2F0E0EC0FFD1F6E0F7F1F49A15AA183
:1019B0000E94B02A1DA21EA21FA218A621962EAD1B
:1019C0003FAD2197220F331F38AF2FAB24E4289D62
:1019D000C001299D900D112484569C4FAC014C5F91
:1019E0005F4F5AAF49AFDC011896BEAFADAF2DA126
:1019F0003EA14FA158A529AB3AAB4BAB5CABE9ADCF
:101A0000FAAD80819181A281B381281739074A07F5
:101A10005B070CF0CFC0ADADBEADED91FC9189A9D7
:101A20009AA9880F991F880F991FE80FF91FA081A5
:101A3000B1818C91882309F4AFC0833009F4ACC024
:101A40000280F381E02D2FA938ADE20FF31F408112
:101A5000518158AB4FA7452B09F49EC089859A85C3
:101A6000AB85BC850196A11DB11D89879A87AB877F
:101A7000BC879E01235E3F4FAE01475D5F4F64E030
:101A800070E0C7010E941F0390E0009709F0E8C0D2
:101A90008D819E81AF81B8850496A11DB11D8D8376
:101AA0009E83AF83B8874D8D5E8DBE016B5D7F4F8A
:101AB0008F8D98A10E94B02A8BA19CA1009761F004
:101AC0006D8D7E8DA5E2B0E0AC0FBD1F6A0F7B1F50
:101AD00049A15AA10E94B02A1EAA1DAA412C512C2C
:101AE0003201EFA5F8A980819181A281B3814816C6
:101AF00059066A067B060CF04FC0EFA5F8A92480B2
:101B000035802DA93EA9220E331ED10112966D916A
:101B10007C9113979E01235E3F4FAE01475D5F4F5F
:101B2000C7010E941F0390E0009709F099C0F101DE
:101B300082819381092E000CAA0BBB0B4D815E8123
:101B40006F817885840F951FA61FB71F8D839E8395
:101B5000AF83B887608171814D8D5E8D8F8D98A127
:101B60000E94B02A8BA19CA1009759F0D1016D91E0
:101B70007C912D8D3E8D620F731F49A15AA10E9449
:101B8000B02ABFEF4B1A5B0A6B0A7B0AEDA9FEA9CC
:101B90003496FEABEDABA5CF49A85AA86BA87CA89C
:101BA000FFEF4F1A5F0A6F0A7F0A4DA25EA26FA273
:101BB00078A61DCF89859A85AB85BC85892B8A2B14
:101BC0008B2B09F44EC08AE190E0A0E0B0E089835D
:101BD0009A83AB83BC8321962EAD3FAD2197C9017B
:101BE000330FAA0BBB0B8D879E87AF87B88B4D89B0
:101BF0005E89BE016F5F7F4F8F89988D0E94B02AEA
:101C00008B8D9C8D009761F06D897E8941E050E05D
:101C10004C0F5D1F640F751F498D5A8D0E94B02AAD
:101C200089A59AA5D70117969C938E93169711961E
:101C30001C921E92CD2889F184E4889DF001899D33
:101C4000F00D1124E652FC4F80819181A281B38175
:101C50000196A11DB11D80839183A283B3831DC012
:101C60008C01CD28D1F4012BC1F084E4889DF001D2
:101C7000899DF00D1124E456FC4F81E090E095A77A
:101C800084A785E090E0938B828B07C083E090E08F
:101C9000938B828B81E090E09BCDCE5ADF4F0FB6C5
:101CA000F894DEBF0FBECDBFDF91CF911F910F9192
:101CB000FF90EF90DF90CF90BF90AF909F908F906C
:101CC0007F906F905F904F903F902F900895CF92AC
:101CD000DF92EF92FF920F931F936B017C0184E4DC
:101CE0008C9DF0018D9DF00D1124E456FC4F8289EE
:101CF0009389009709F450C00197B9F482A593A580
:101D00009C012F5F3F4F33A722A7092E000CAA0B7F
:101D1000BB0B028D138D248D358D80179107A20783
:101D2000B307D1F5C701B6010CDB84E48C9DF0014B
:101D30008D9DF00D1124E456FC4F82899389039701
:101D400059F582A593A59C012F5F3F4F33A722A78A
:101D5000092E000CAA0BBB0B468D578D60A171A1FB
:101D600084179507A607B707BCF086AD97AD93A774
:101D700082A784E090E0938B828B82AD93ADA4AD7B
:101D8000B5AD181619061A061B0634F4EE5BFF4FA4
:101D900081E090E0918380831F910F91FF90EF90FD
:101DA000DF90CF90089524E4269FF001279FF00D47
:101DB0001124E456FC4F828993890497B1F482A5DB
:101DC00093A5019693A782A7092E000CAA0BBB0B23
:101DD00046895789608D718D84179507A607B707C7
:101DE00021F485E090E0938B828B08952F923F92AF
:101DF0004F925F926F927F928F929F92AF92BF921B
:101E0000CF92DF92EF92FF920F931F93CF93DF93C6
:101E1000CDB7DEB72E970FB6F894DEBF0FBECDBF9D
:101E200049835A836B837C834901442E552E24E4D5
:101E3000249DF001259DF00D1124E456FC4F2288CD
:101E400033889101245031091586148622303105DA
:101E500008F0DDC0DC0111961C921E9213961C92B4
:101E60001E921297A12CB12C60E070E09F01265FBA
:101E70003F4F38872F837F013CE0E30EF11CDF01E9
:101E80005096BA87A9879F01225F3F4F3C872B87D7
:101E9000681579050CF06FC0EF81F885A081B181DC
:101EA0009D012A0D3B1D3E872D87D9012D913C9127
:101EB0001197232B09F059C018960D911C91199771
:101EC0001296ED91FC911397FE83ED8316962D915A
:101ED0003C911797D7014D915C91DA01E3E0AA0F8D
:101EE000BB1FEA95E1F7E985FA85C080D180FD0145
:101EF000EC0DFD1D440F551FAB85BC85CD90DC90CE
:101F00004C0D5D1DDA016D937C93D7014D915C9171
:101F100011974F5F5F4F4D935C9313830283AD85A1
:101F2000BE851B963C932E931A970217130748F40D
:101F3000201B310B31832083158214821782168275
:101F400014C0AD85BE851496CD90DC9015974D815B
:101F50005E814C0D5D1D401B510B518340832C193C
:101F60003D0935832483D782C6826F5F7F4FBEE0F1
:101F7000AB0EB11C8DCF24E4249D8001259D100D56
:101F8000112404561C4FF80124853585DC01119677
:101F90003C932E934089518913965C934E931297EC
:101FA0004685578515965C934E931497232BA1F580
:101FB000B5E02B16310481F510922404828D938DA7
:101FC000A48DB58DAE014F5F5F4F64E070E08F3F31
:101FD0009F4FAF4FBF4F59F480E290E00E94801EA8
:101FE00069817A818B819C81A40100DA15C08FE11F
:101FF00090E00E94801ED8019B961C921E929A9798
:1020000081E090E053969C938E93529705C0FC011B
:1020100011821082138212822E960FB6F894DEBFC0
:102020000FBECDBFDF91CF911F910F91FF90EF9029
:10203000DF90CF90BF90AF909F908F907F906F90E8
:102040005F904F903F902F900895EF92FF920F93E3
:102050001F93CF93DF937C018B01EA010E94031F42
:10206000811121C08091840290918502049711F121
:1020700083E090E090938502809384021BC0988156
:102080009111F0CF28ED38EB45E050E060E070E0D2
:10209000CB010E948D21AE01B801C7010E949B2196
:1020A000C8010E9466218091250490912604892B05
:1020B00031F3D8CFDF91CF911F910F91FF90EF9027
:1020C0000895CF93DF9320918402309185022430CC
:1020D000310541F0EB010E949B21CE01DF91CF91B0
:1020E0000C946621DF91CF9108950C94AD250C944A
:1020F000A2250C9490250C9476210C9434250895F7
:1021000060E070E080E090E00C94DE1E0895AF92F5
:10211000BF92CF92DF92EF92FF920F931F93CF93D4
:10212000DF931F921F92CDB7DEB75C0169017A0180
:102130008B0180E090E0C114D104E104F104F1F0DE
:10214000C114D10421E0E206F10410F4A60102C09A
:102150004FEF5FEF9E012F5F3F4FB801C5010E9417
:102160004E268F3F2FEF920749F029813A81C21AFC
:10217000D30AE108F108020F131FDDCF0F900F9073
:10218000DF91CF911F910F91FF90EF90DF90CF9053
:10219000BF90AF90089580913104E3D4892B71F4FE
:1021A00080913304DED440912F045091300420916B
:1021B000270430912804892B71F416C080913304D0
:1021C000D0D440912F0450913004209127043091B5
:1021D0002804892B49F44F5F5F4F5093300440939C
:1021E0002F042F5F3F4F08C04150510950933004D6
:1021F00040932F0421503109309328042093270461
:1022000081E090E090932E0480932D0408958F92A6
:102210009F92AF92BF92CF92DF92EF92FF920F9375
:102220001F93CF93DF93EA01590120E030E040E8AB
:102230005FE3F60160817181828193810E9493271F
:1022400081119EC0F5016081718180E090E069D3C9
:1022500020913304309134042230310551F0233081
:10226000310549F0C9014297049738F487E1821B90
:1022700005C080E003C081E001C08FEF55D180919F
:102280002D0490912E04892B59F010922E04109257
:102290002D0480912F0490913004F8019183808364
:1022A0000FD30091290410912A0420912B0430911E
:1022B0002C04601B710B820B930B0E94FF279B0168
:1022C000AC0160E070E68AE697E40E9497274B0134
:1022D0005C018091270490912804BC01990F880B20
:1022E000990B0E9401289B01AC01C501B4010E9419
:1022F000B5284B015C01688179818A819B810E94AC
:10230000FF279B01AC01C501B4010E949727F7018B
:102310006083718382839383D3D260932904709303
:102320002A0480932B0490932C041092280410927A
:10233000270420913304309134042230310551F0C8
:102340002330310549F0C9014297049738F487E1F9
:10235000821B05C080E003C081E001C08FEF41E037
:1023600050E06BEC70E1DF91CF911F910F91FF90E6
:10237000EF90DF90CF90BF90AF909F908F9060C014
:10238000DF91CF911F910F91FF90EF90DF90CF9051
:10239000BF90AF909F908F900895CF92DF92EF9271
:1023A000FF920F931F93CF93DF937C018B01E60184
:1023B00020E030E040E85FE3688179818A819B8199
:1023C0000E949327882389F1F7014081842F90E0B0
:1023D0009093340480933304F801208130E03093EB
:1023E0003204209331041092280410922704823082
:1023F000910549F08330910541F04297049738F4F4
:1024000087E1841B05C080E003C081E001C08FEF3D
:1024100041E050E06BEC70E113D080E090E0A0E888
:10242000BFE388839983AA83BB83DF91CF911F91F8
:102430000F91FF90EF90DF90CF9008950895089549
:10244000883008F070C0A82FB0E0AA0FBB1FAA57B1
:10245000BD4F11967C936E9390E0FC013197E7306D
:10246000F105A0F58827EE58FF4F8F4F0C944D29AA
:10247000809169008C7F482B40936900E89A089509
:1024800080916900440F551F440F551F837F482BCF
:1024900040936900E99A08958091690074E0440FBF
:1024A000551F7A95E1F78F7C482B40936900EA9A93
:1024B00008958091690066E0440F551F6A95E1F721
:1024C0008F73482B40936900EB9A089580916A00BE
:1024D0008C7F482B40936A00EC9A089580916A00A3
:1024E000440F551F440F551F837F482B40936A00AC
:1024F000ED9A089580916A0024E0440F551F2A95B3
:10250000E1F78F7C482B40936A00EE9A0895809102
:102510006A0096E0440F551F9A95E1F78F73482B98
:1025200040936A00EF9A0895982F883030F5482F2D
:1025300050E0FA013197E730F10570F48827E75849
:10254000FF4F8F4F0C944D29E8980DC0E9980BC0B0
:10255000EA9809C0EB9807C0EC9805C0ED9803C055
:10256000EE9801C0EF98E92FF0E0EE0FFF1FEA5759
:10257000FD4F8FE192E19183808308951F920F9226
:102580000FB60F9211240BB60F922F933F934F93D8
:102590005F936F937F938F939F93AF93BF93EF93CB
:1025A000FF93E0918A02F0918B021995FF91EF91D0
:1025B000BF91AF919F918F917F916F915F914F915B
:1025C0003F912F910F900BBE0F900FBE0F901F9059
:1025D00018951F920F920FB60F9211240BB60F92FF
:1025E0002F933F934F935F936F937F938F939F931B
:1025F000AF93BF93EF93FF93E0918C02F0918D0224
:102600001995FF91EF91BF91AF919F918F917F911C
:102610006F915F914F913F912F910F900BBE0F9053
:102620000FBE0F901F9018951F920F920FB60F922A
:1026300011240BB60F922F933F934F935F936F9399
:102640007F938F939F93AF93BF93EF93FF93E0910B
:102650008E02F0918F021995FF91EF91BF91AF918A
:102660009F918F917F916F915F914F913F912F91AA
:102670000F900BBE0F900FBE0F901F9018951F92DA
:102680000F920FB60F9211240BB60F922F933F9318
:102690004F935F936F937F938F939F93AF93BF936A
:1026A000EF93FF93E0919002F09191021995FF91C1
:1026B000EF91BF91AF919F918F917F916F915F91BA
:1026C0004F913F912F910F900BBE0F900FBE0F9027
:1026D0001F9018951F920F920FB60F9211240BB6F0
:1026E0000F922F933F934F935F936F937F938F93AB
:1026F0009F93AF93BF93EF93FF93E0918602F09186
:1027000087021995FF91EF91BF91AF919F918F91A2
:102710007F916F915F914F913F912F910F900BBEE1
:102720000F900FBE0F901F9018951F920F920FB62B
:102730000F9211240BB60F922F933F934F935F93F9
:102740006F937F938F939F93AF93BF93EF93FF9379
:10275000E0918802F09189021995FF91EF91BF9164
:10276000AF919F918F917F916F915F914F913F9129
:102770002F910F900BBE0F900FBE0F901F901895CA
:102780001F920F920FB60F9211240BB60F922F9338
:102790003F934F935F936F937F938F939F93AF93E9
:1027A000BF93EF93FF93E0919202F09193021995FA
:1027B000FF91EF91BF91AF919F918F917F916F9119
:1027C0005F914F913F912F910F900BBE0F900FBED5
:1027D0000F901F9018951F920F920FB60F92112411
:1027E0000BB60F922F933F934F935F936F937F930B
:1027F0008F939F93AF93BF93EF93FF93E0919402D6
:10280000F09195021995FF91EF91BF91AF919F9132
:102810008F917F916F915F914F913F912F910F9089
:102820000BBE0F900FBE0F901F9018951F920F9226
:102830000FB60F9211242F933F938F939F93AF93D3
:10284000BF938091360490913704A0913804B091E1
:1028500039043091350423E0230F2D3720F40196FD
:10286000A11DB11D05C026E8230F0296A11DB11DB3
:10287000209335048093360490933704A093380452
:10288000B093390480913A0490913B04A0913C04A8
:10289000B0913D040196A11DB11D80933A0490931F
:1028A0003B04A0933C04B0933D04BF91AF919F9132
:1028B0008F913F912F910F900FBE0F901F90189501
:1028C0002FB7F894609136047091370480913804E2
:1028D000909139042FBF08953FB7F89480913A043E
:1028E00090913B04A0913C04B0913D0426B5A89B77
:1028F00005C02F3F19F00196A11DB11D3FBFBA2F92
:10290000A92F982F8827820F911DA11DB11DBC01F1
:10291000CD0142E0660F771F881F991F4A95D1F7B6
:1029200008958F929F92AF92BF92CF92DF92EF92D3
:10293000FF926B017C01D0DF4B015C01C114D1041B
:10294000E104F104F1F07ADDC7DFDC01CB01881985
:102950009909AA09BB09883E9340A105B10570F306
:1029600021E0C21AD108E108F10888EE880E83E060
:10297000981EA11CB11CC114D104E104F10421F77B
:10298000DDCFFF90EF90DF90CF90BF90AF909F9002
:102990008F900895789484B5826084BD84B58160F9
:1029A00084BD85B5826085BD85B5816085BDEEE657
:1029B000F0E0808181608083E1E8F0E01082808136
:1029C00082608083808181608083E0E8F0E08081A4
:1029D00081608083E1EBF0E0808184608083E0EBC4
:1029E000F0E0808181608083E1E9F0E080818260B5
:1029F0008083808181608083E0E9F0E08081816074
:102A00008083E1EAF0E08081826080838081816060
:102A10008083E0EAF0E0808181608083E1E2F1E0A0
:102A2000808182608083808181608083E0E2F1E048
:102A3000808181608083EAE7F0E080818460808328
:102A400080818260808380818160808380818068D2
:102A500080831092C100089590E0FC013197E2312B
:102A6000F10508F04EC08827E058FF4F8F4F0C94B7
:102A70004D29809180008F7703C0809180008F7DE9
:102A800080938000089580918000877FF9CF84B57E
:102A90008F7702C084B58F7D84BD08958091B0008A
:102AA0008F7703C08091B0008F7D8093B000089530
:102AB000809190008F7707C0809190008F7D03C038
:102AC00080919000877F8093900008958091A0006E
:102AD0008F7707C08091A0008F7D03C08091A000F8
:102AE000877F8093A0000895809120018F7707C091
:102AF000809120018F7D03C080912001877F80938A
:102B0000200108951F93CF93DF93282F30E0F90120
:102B1000EC5BFE4F8491F901E657FE4FD491F90129
:102B2000E053FE4FC491CC23C1F0162F811194DFE6
:102B3000EC2FF0E0EE0FFF1FE05DFD4FA591B4918B
:102B40008FB7F894111105C09C91ED2FE095E92302
:102B500002C0EC91ED2BEC938FBFDF91CF911F91D1
:102B60000895CF93DF93282F30E0F901EC5BFE4FFF
:102B70008491F901E657FE4FD491F901E053FE4FDD
:102B8000C491CC2389F0811167DFEC2FF0E0EE0FC8
:102B9000FF1FEA5EFD4FA591B491EC91ED2381E01A
:102BA00090E021F480E002C080E090E0DF91CF91DE
:102BB0000895FC01918D228D892F90E0805C9F4FBC
:102BC000821B91098F7399270895FC01918D828D45
:102BD000981731F0828DE80FF11D858D90E00895F2
:102BE0008FEF9FEF0895FC01918D828D981761F012
:102BF000828DDF01A80FB11D5D968C91928D9F5F34
:102C00009F73928F90E008958FEF9FEF0895FC01DE
:102C1000848DDF01A80FB11DA35ABF4F2C91848D65
:102C200090E001968F739927848FA689B7892C939A
:102C3000A089B1898C9180648C93938D848D981335
:102C400006C00288F389E02D80818F7D80830895FE
:102C5000CF93DF93EC01888D8823C1F0EA89FB894B
:102C6000808185FD05C0A889B9898C9186FD0EC03B
:102C70000FB607FCF5CF808185FFF2CFA889B9890F
:102C80008C9185FFEDCFCE01C2DFE8CFDF91CF91F0
:102C90000895EF92FF920F931F93CF93DF93EC0170
:102CA00081E0888F9B8D8C8D981305C0E889F98908
:102CB000808185FD23C0F62E0B8D10E00F5F1F4F26
:102CC0000F731127E02E8C8DE8120BC00FB607FC96
:102CD000FACFE889F989808185FFF5CFCE0197DFAA
:102CE000F2CF8B8DFE01E80FF11DE35AFF4FF0820A
:102CF0000B8FEA89FB898081806207C0EE89FF899A
:102D00006083E889F98980818064808381E090E034
:102D1000DF91CF911F910F91FF90EF900895CF9287
:102D2000DF92EF92FF921F93CF93DF93EC016A0142
:102D30007B01122FE889F98982E080834115514E89
:102D400061057105B1F060E079E08DE390E0A701E5
:102D500096010E942B29DA01C9010197A109B10945
:102D6000B695A79597958795AC01411580E15807D1
:102D7000A8F0E889F989108260E874E88EE190E0B3
:102D8000A70196010E942B29BA01A90141505109BE
:102D9000610971097695679557954795EC85FD858D
:102DA0005083EE85FF854083188EEC89FD89108362
:102DB000EA89FB89808180618083EA89FB8980813F
:102DC00088608083EA89FB89808180688083EA89C2
:102DD000FB8980818F7D8083DF91CF911F91FF9050
:102DE000EF90DF90CF9008951F920F920FB60F9241
:102DF00011240BB60F922F938F939F93EF93FF9312
:102E0000E0914E04F0914F048081E0915404F091E0
:102E1000550482FD12C09081809157048F5F8F739B
:102E200020915804821751F0E0915704F0E0E25CE1
:102E3000FB4F958F8093570401C08081FF91EF91E4
:102E40009F918F912F910F900BBE0F900FBE0F90FF
:102E50001F9018951F920F920FB60F9211240BB668
:102E60000F922F933F934F935F936F937F938F9323
:102E70009F93AF93BF93EF93FF938EE394E0C7DEEE
:102E8000FF91EF91BF91AF919F918F917F916F9142
:102E90005F914F913F912F910F900BBE0F900FBEFE
:102EA0000F901F901895EEE3F4E01382128288EEE3
:102EB00093E0A0E0B0E084839583A683B7838EE19E
:102EC00093E09183808385EC90E09587848784EC00
:102ED00090E09787868780EC90E0918B808B81ECE7
:102EE00090E0938B828B82EC90E0958B848B86ECC8
:102EF00090E0978B868B118E128E138E148E089510
:102F00001F920F920FB60F9211240BB60F922F93B0
:102F10008F939F93EF93FF93E091EB04F091EC0478
:102F20008081E091F104F091F20482FD12C0908161
:102F30008091F4048F5F8F732091F504821751F014
:102F4000E091F404F0E0E552FB4F958F8093F40498
:102F500001C08081FF91EF919F918F912F910F90F0
:102F60000BBE0F900FBE0F901F9018951F920F92DF
:102F70000FB60F9211240BB60F922F933F934F93DE
:102F80005F936F937F938F939F93AF93BF93EF93D1
:102F9000FF938BED94E03BDEFF91EF91BF91AF91FA
:102FA0009F918F917F916F915F914F913F912F9161
:102FB0000F900BBE0F900FBE0F901F901895EBED6A
:102FC000F4E01382128288EE93E0A0E0B0E0848304
:102FD0009583A683B7838EE193E0918380838DEC04
:102FE00090E0958784878CEC90E09787868788ECC3
:102FF00090E0918B808B89EC90E0938B828B8AECB4
:1030000090E0958B848B8EEC90E0978B868B118E65
:10301000128E138E148E08951F920F920FB60F9278
:1030200011240BB60F922F938F939F93EF93FF93DF
:10303000E0918805F09189058081E0918E05F091FD
:103040008F0582FD12C09081809191058F5F8F73F3
:1030500020919205821751F0E0919105F0E0E85837
:10306000FA4F958F8093910501C08081FF91EF9178
:103070009F918F912F910F900BBE0F900FBE0F90CD
:103080001F9018951F920F920FB60F9211240BB636
:103090000F922F933F934F935F936F937F938F93F1
:1030A0009F93AF93BF93EF93FF9388E795E0AFDDD6
:1030B000FF91EF91BF91AF919F918F917F916F9110
:1030C0005F914F913F912F910F900BBE0F900FBECC
:1030D0000F901F901895E8E7F5E01382128288EEB2
:1030E00093E0A0E0B0E084839583A683B7838EE16C
:1030F00093E09183808385ED90E09587848784EDCC
:1031000090E09787868780ED90E0918B808B81EDB2
:1031100090E0938B828B82ED90E0958B848B86ED93
:1031200090E0978B868B118E128E138E148E0895DD
:103130001F920F920FB60F9211240BB60F922F937E
:103140008F939F93EF93FF93E0912506F0912606CE
:103150008081E0912B06F0912C0682FD12C09081B7
:1031600080912E068F5F8F7320912F06821751F06A
:10317000E0912E06F0E0EB5EF94F958F80932E06DE
:1031800001C08081FF91EF919F918F912F910F90BE
:103190000BBE0F900FBE0F901F9018951F920F92AD
:1031A0000FB60F9211240BB60F922F933F934F93AC
:1031B0005F936F937F938F939F93AF93BF93EF939F
:1031C000FF9385E196E023DDFF91EF91BF91AF91F1
:1031D0009F918F917F916F915F914F913F912F912F
:1031E0000F900BBE0F900FBE0F901F901895E5E14A
:1031F000F6E01382128288EE93E0A0E0B0E08483D0
:103200009583A683B7838EE193E09183808385E3E2
:1032100091E09587848784E391E09787868780E3B0
:1032200091E0918B808B81E391E0938B828B82E3A1
:1032300091E0958B848B86E391E0978B868B118E42
:10324000128E138E148E08958F929F92AF92BF921A
:10325000CF92DF92EF92FF920F931F93CF93DF9362
:103260007C018B016C0182E0C80ED11C4701E5E0B6
:103270008E0E911CC0E0D0E0F60161916F014AE032
:1032800050E0C801C6D05C016EE2C80167D08A0D6B
:103290009B1DC80FD91FC814D90471F74AE050E02C
:1032A000F7016581C801B5D08C0F9D1FDF91CF91CB
:1032B0001F910F91FF90EF90DF90CF90BF90AF9054
:1032C0009F908F900895E2EBF6E08EE293E0918379
:1032D000808312821382148215820895CF92DF9226
:1032E000EF92FF920F931F93CF93DF936C017A01BC
:1032F0008B01C0E0D0E0CE15DF0589F0D8016D91DB
:103300008D01D601ED91FC910190F081E02DC60177
:103310001995892B11F47E0102C02196ECCFC701CB
:10332000DF91CF911F910F91FF90EF90DF90CF90A1
:1033300008956115710579F0FB0101900020E9F70E
:103340003197AF01461B570BDC01ED91FC910280D8
:10335000F381E02D199480E090E00895DC01ED9177
:10336000FC910190F081E02D19944F925F926F9241
:103370007F92EF92FF920F931F93CF93DF93CDB77E
:10338000DEB7A1970FB6F894DEBF0FBECDBF7C01AC
:10339000FA01CB0119A2223008F42AE08E010F5D58
:1033A0001F4F422E512C612C712CBF01A3019201A1
:1033B0000E942B29F901CA01015011096A3014F445
:1033C000605D01C0695CD8016C93232B242B252BF5
:1033D00061F7B801C701ADDFA1960FB6F894DEBF63
:1033E0000FBECDBFDF91CF911F910F91FF90EF9056
:1033F0007F906F905F904F9008952115310541F4B3
:10340000DC01ED91FC910190F081E02D642F199485
:10341000ACCF9A01462F50E060E070E0EECF8230F2
:10342000A9F028F4882349F0813051F008958430C0
:1034300021F1E8F0853039F1089510926E00089579
:1034400080916F008D7F80936F0008958091700050
:103450008D7F8093700081E08093B0008091B100F7
:10346000887F84608093B1001092B30008958091AA
:1034700071008D7F809371000895809172008D7F1F
:10348000809372000895809173008D7F8093730004
:103490000895CF93C82F809196028C1307C0EAE459
:1034A000F2E0E4918FEF8093960201C0EFEF8E2F50
:1034B000B6DF60E08C2FCF9125CB1F920F920FB615
:1034C0000F9211240BB60F922F933F934F935F935C
:1034D0006F937F938F939F93AF93BF93EF93FF93DC
:1034E0008091BB069091BC06A091BD06B091BE062E
:1034F000892B8A2B8B2B51F18091B806E091B9066C
:10350000F091BA069081892780838091BB069091C3
:10351000BC06A091BD06B091BE06181619061A0683
:103520001B06BCF48091BB069091BC06A091BD0621
:10353000B091BE060197A109B1098093BB06909393
:10354000BC06A093BD06B093BE0603C08091960250
:10355000A0DFFF91EF91BF91AF919F918F917F91EC
:103560006F915F914F913F912F910F900BBE0F90F4
:103570000FBE0F901F90189540E855E260E070E094
:1035800080E090E000C08130910571F01CF4892B3F
:1035900039F008958230910559F0039769F0089544
:1035A00026E08EE394E00BC026E08BED94E007C0AC
:1035B00026E088E795E003C026E085E196E0AFCB02
:1035C0000895CF92DF92EF92FF920F931F9384D9C9
:1035D0006093BF067093C0068093C1069093C206A5
:1035E0000091C3061091C4062091C5063091C6060D
:1035F0006B017C01C01AD10AE20AF30A40E4C41646
:103600004DE0D40643E0E406F10448F16093C306BC
:103610007093C4068093C5069093C6060E948826C0
:103620005BD90091C3061091C4062091C506309164
:10363000C606DC01CB01801B910BA20BB30B8034BF
:103640009D40A340B10538F081E090E09093F506ED
:103650008093F40604C01092F5061092F40681E0FF
:103660001F910F91FF90EF90DF90CF9008956F9290
:103670007F928F929F92AF92BF92CF92DF92EF9202
:10368000FF920F931F93CF93DF935C017B014A015D
:1036900001E010E00E151F0564F568018FEFC81AF0
:1036A000D80AE801CC0FDD1FC80DD91D68807980CC
:1036B00061147104E1F060E373E0C3010E94C02A69
:1036C000892B19F41982188212C063E373E0C301D5
:1036D0000E94C02A892B59F4CE14DF0441F06801FE
:1036E000E2E0CE0ED11C198218821B821A8286015A
:1036F000D1CF81E0F5018083B401C7010E94D825B4
:10370000F5019283818380E090E0DF91CF911F915A
:103710000F91FF90EF90DF90CF90BF90AF909F9070
:103720008F907F906F90089587EC96E0089580E0E9
:1037300008950F931F93CF93DF938B01BA01E90193
:10374000198218829801012E000C440B550BFC01C4
:10375000818192810E948710019621F0198308834C
:1037600080E001C081E0DF91CF911F910F9108951A
:103770000F931F93CF93DF931F921F92CDB7DEB7A6
:10378000FB018A01B9019E012F5F3F4FAF01FC0190
:10379000818192810E94EF25019639F089819A8179
:1037A000F8019183808380E001C081E00F900F9049
:1037B000DF91CF911F910F910895FC0180810895B1
:1037C0000895089581E0FB01808380E008950895C5
:1037D0001092F1060895FC01818192810C94CF250D
:1037E000CF93DF93CDB7DEB72A970FB6F894DEBF3D
:1037F0000FBECDBFAC01CB0160E070E049835A83BE
:103800006B837C83092E000CAA0BBB0B8D839E83DC
:10381000AF83B8879E01275F3F4FAE014F5F5F4F79
:1038200068E070E08091E0069091E10682DF81110E
:1038300008C081E029853A852830310519F480E0F7
:1038400001C081E02A960FB6F894DEBF0FBECDBF4F
:10385000DF91CF9108950F931F93CF93DF931F9222
:103860001F92CDB7DEB78B019E012F5F3F4FAC019A
:103870008091E0069091E1065CDF811108C081E053
:1038800029813A812017310719F480E001C081E0D5
:103890000F900F90DF91CF911F910F910895CF93CB
:1038A000DF93EC011092E4061092E3061092F0060A
:1038B0001092EF06AC0160E070E0CB010E94F609C7
:1038C000AE0161E070E080E090E00E94F609809136
:1038D000E0069091E106DF91CF9179CF4F925F9210
:1038E0006F927F928F929F92AF92BF92CF92DF9210
:1038F000EF92FF920F931F93CF93DF931F921F922C
:10390000CDB7DEB79C016C0197FF03C087E0C80EFE
:10391000D11C43E0D594C7944A95E1F7C90168E00A
:1039200070E00E9418297C0189010E5F1F4F809171
:10393000DE069091DF06801791070CF0DCC08091C5
:10394000DC069091DD06009731F00E94182A109253
:10395000DF061092DE06C8010E9483299093DD06DF
:103960008093DC06892B29F01093DF060093DE0696
:10397000C2C0A12CB12CAC14BD040CF05EC0412C13
:10398000512C320100E010E098012B51394FAE016B
:103990004F5F5F4F61E070E08091E0069091E1063B
:1039A000E7DE811198C189819A812FEF421A520A6C
:1039B000620A720A20E942162FE5520621E06206E9
:1039C00071043CF06091EF067091F0068DEE90E08E
:1039D0002DC0080F191F0A30110551F549E050E0BC
:1039E00060E070E085EE96E00E947A266091EF0636
:1039F0007091F0068823C1F08091ED0690E0681781
:103A0000790709F0B8CF8EEE90E0EADE8091EF06FC
:103A10009091F006019699279093F0068093EF0617
:103A20008FEFA81AB80AA7CF8FEE90E0D9DEA7CF04
:103A30000A3011050CF4A8CF9ECFEF2809F44BC132
:103A4000C12CD12C760100E010E098012B51394FA8
:103A5000AE014F5F5F4F61E070E08091E0069091B2
:103A6000E10686DE811137C189819A812FEFC21A62
:103A7000D20AE20AF20A20E9C2162FE5D20621E0B4
:103A8000E206F1043CF06091EF067091F0068DEED5
:103A900090E02AC0080F191F0A30110539F549E0D6
:103AA00050E060E070E085EE96E00E947A2660913A
:103AB000EF067091F0068823A9F08091ED0690E062
:103AC0006817790709F007C18EEE90E089DE8091D2
:103AD000EF069091F006019699279093F006809357
:103AE000EF06F9C08FEE90E07BDEAACF0A30110519
:103AF0000CF4ABCFF0C000E010E00C151D050CF08D
:103B000077C0412C512C3201A12CB12C480193E0FB
:103B1000880C991C9A95E1F72091DC063091DD061E
:103B2000C4018A0D9B1D280F391FAE014F5F5F4FE7
:103B300061E070E08091E0069091E10619DE81116C
:103B4000CAC089819A812FEF421A520A620A720A08
:103B500020E942162FE5520621E0620671043CF08E
:103B60006091EF067091F0068DEE90E034C0A80EE3
:103B7000B91E8AE0A816B104A9F549E050E0B401E5
:103B80008091DC069091DD060E947A266091EF0616
:103B90007091F0068823E9F08091DC069091DD06B3
:103BA000FC01E80DF91D808590E06817790709F0A0
:103BB000A4CF8EEE90E014DE8091EF069091F00697
:103BC000019699279093F0068093EF060F5F1F4FA1
:103BD00094CF8FEE90E004DE412C512C3201A12CC9
:103BE000B12C9ACF2AE0A216B1040CF495CF85CF60
:103BF000E114F10409F46AC0680183E0CC0CDD1C17
:103C00008A95E1F7812C912C540100E010E0980195
:103C10002B51394FAE014F5F5F4F61E070E08091F3
:103C2000E0069091E106A4DD811155C089819A8159
:103C30002FEF821A920AA20AB20A20E982162FE511
:103C4000920621E0A206B1043CF06091EF0670916B
:103C5000F0068DEE90E034C0080F191F0A301105F0
:103C600089F549E050E060E070E085EE96E00E9462
:103C70007A266091EF067091F0068823F9F0809122
:103C8000ED0690E06817790709F58EEE90E0A8DD63
:103C90008091DC069091DD06A70165EE76E08C0D43
:103CA0009D1D0E94B02A8091EF069091F00601962A
:103CB00099279093F0068093EF0608C08FEE90E06E
:103CC0008FDDA0CF0A3011050CF4A1CF8091DC0666
:103CD0009091DD0602C080E090E00F900F90DF91A0
:103CE000CF911F910F91FF90EF90DF90CF90BF90F9
:103CF000AF909F908F907F906F905F904F900895BE
:103D0000CF92DF92EF92FF920F931F93CF93DF93A7
:103D10001F92CDB7DEB76C017B018A01452B31F0D4
:103D2000AB0160E070E0C801E1D78983B701C6014B
:103D300057DD81110DC00115110551F0B701C80102
:103D40008ADD811105C061E070E0CE01019683DD5E
:103D50000F90DF91CF911F910F91FF90EF90DF9027
:103D6000CF900895CF92DF92EF92FF92CF93DF939F
:103D7000CDB7DEB728970FB6F894DEBF0FBECDBF24
:103D80006B01E12CF12CC982DA82EB82FC822D835B
:103D90003E834F835887AE014F5F5F4F68E070E00E
:103DA000AFDF28960FB6F894DEBF0FBECDBFDF9110
:103DB000CF91FF90EF90DF90CF9008950F931F93D6
:103DC000CF93DF93EC018B01AFDC9093E1068093FE
:103DD000E006009739F0A801BE0149DCEC01892B0F
:103DE00019F40BC0CFE3D3E08091E0069091E10697
:103DF000E7DC1092E1061092E006CE01DF91CF9150
:103E00001F910F9108958091E0069091E106D5CC25
:103E10002F923F924F925F926F927F928F929F92DA
:103E2000AF92BF92CF92DF92EF92FF920F931F93C8
:103E3000CF93DF93CDB7DEB769970FB6F894DEBFA7
:103E40000FBECDBF2091E406222309F426C25D8B6C
:103E50004C8B688B798B8A8B9B8B9A01AB01BC0155
:103E6000CE0101960E94F60E10E038E0232E312C90
:103E700089819A81181619060CF00AC21F861E86BF
:103E80001D861C8689819A81AC85BD85A817B907D6
:103E90000CF0F3C1EB81FC812E853F85E20FF31F0F
:103EA000208131813093DB062093DA06848195816D
:103EB0009093D9068093D806428153815093D706B8
:103EC0004093D606468157815093D5064093D40639
:103ED000820F931F9C01990F440B550B2E8B3F8B28
:103EE000488F598FC12CD12C76012E893F89488D5E
:103EF000598DC216D306E406F50608F0A2C11F824A
:103F00006091DA067091DB068B01072E000C220B04
:103F1000330BD701C6010496A11DB11D801791076F
:103F2000A207B30728F4E091D606F091D7060AC09D
:103F3000E4E0F0E0E61BF70BEC0DFD1D8091D406EC
:103F40009091D506E80FF91F4080512C612C712CFF
:103F5000D701C6010596A11DB11D80179107A207C3
:103F6000B30728F4E091D606F091D7060AC0E5E041
:103F7000F0E0E61BF70BEC0DFD1D8091D40690914F
:103F8000D506E80FF91F8081582AD701C601069689
:103F9000A11DB11D80179107A207B30728F4E09176
:103FA000D606F091D7060AC0E6E0F0E0E61BF70B74
:103FB000EC0DFD1D8091D4069091D506E80FF91FF8
:103FC0008081682AD701C6010796A11DB11D8017FF
:103FD0009107A207B30728F4E091D606F091D7061F
:103FE0000AC0E7E0F0E0E61BF70BEC0DFD1D809149
:103FF000D4069091D506E80FF91F8081782A4601F2
:10400000570148E0840E911CA11CB11C081519052C
:104010002A053B0508F4B4C0C016D106E206F30633
:1040200038F48091D6069091D7068C0D9D1D09C05D
:10403000C601861B970B2091D4063091D506820FBE
:10404000931F68E070E007DCE091DA06F091DB0690
:104050009F010F2E000C440B550BD301C201880D9C
:10406000991DAA1DBB1D281739074A075B07C8F011
:1040700082169306A406B50638F42091D606309130
:10408000D706C601089609C0C1018E1B9F0B8C0D77
:104090009D1D2091D4063091D506820F931FB20149
:1040A00099C08601BF01685071096C197D0982169B
:1040B0009306A406B50638F42091D6063091D706AB
:1040C000C601089609C0C1018E1B9F0B8C0D9D1D5A
:1040D0002091D4063091D506820F931FBCDB8091CE
:1040E000DA069091DB06B101681B790B600F711F36
:1040F000640D751D8091D4069091D506ACDB80913E
:10410000DA069091DB06AC0148505109FA01E01B38
:10411000F10BAC01092E000C660B770B841695068B
:10412000A606B70638F42091D6063091D706C60108
:1041300008960AC09101281B390BC9018C0D9D1DE1
:104140002091D4063091D506820F931FAF0160E015
:1041500070E0CCD58F832091DA063091DB06A10187
:10416000421B530B9A01200F311F240D351D40E0D7
:1041700050E0682F8091D4069091D506A3D550C009
:10418000C016D106E206F306C8F46C197D098091C9
:10419000D6069091D7068C0D9D1D5DDB8091DA06C9
:1041A0009091DB06B101681B790B6C0D7D1D640DD0
:1041B000751D8091D4069091D5060CC0C601861B52
:1041C000970B2091D4063091D506B201685F7F4FDE
:1041D000820F931F40DB8091DA069091DB06AC01E1
:1041E000092E000C660B770B84169506A606B706FB
:1041F00038F42091D6063091D706C60108960AC039
:10420000D101A81BB90BCD018C0D9D1D2091D406A9
:104210003091D506820F931FA20160E070E066D551
:104220008F8361E070E0CE01079615DB182FB8E0B0
:104230004B0E511C611C711CC40CD51CE61CF71CD8
:1042400054CE8C859D85880F991FED81FE81E80FE6
:10425000F91F488959896A897B89808191810E94E7
:10426000280A4C855D854F5F5F4F5D874C878E8543
:104270009F8508969F878E8705CE2C893D89488922
:1042800059896A897B89CE0101960E94F60EF0CD8C
:10429000112319F08C899D8902DB69960FB6F89479
:1042A000DEBF0FBECDBFDF91CF911F910F91FF9069
:1042B000EF90DF90CF90BF90AF909F908F907F90C6
:1042C0006F905F904F903F902F900895CF93DF9322
:1042D000EC01AC0160E070E0CB019ADDAE0161E081
:1042E00070E080E090E0DF91CF9192CDCF9380910C
:1042F000E0069091E1061BDAC82F81110BC060E047
:1043000070E0CB010E94F80461E070E080E090E092
:104310000E94F8048C2FCF9108950F931F93890169
:104320009A01AB01BC018091E0069091E10649DA67
:104330001F910F9108953F924F925F926F927F92DB
:104340008F929F92AF92BF92CF92DF92EF92FF92A5
:104350000F931F93CF93DF93CDB7DEB767970FB659
:10436000F894DEBF0FBECDBF6C017B015A01809176
:10437000E406882331F08091E406882309F45CC3C5
:104380000AC064EE76E08091E0069091E1061ADAC8
:10439000811152C3F0CF8091E3061A8219828823DB
:1043A00009F46AC0E0E94E2EEFE55E2E66246394C0
:1043B000712C00E010E098012653394FAE014F5F99
:1043C0005F4F61E070E08091E0069091E106D0D906
:1043D000982E81114DC089819A81080F191F0115EE
:1043E000110509F445C081E0481A510861087108B7
:1043F00039F46091EF067091F0068DEE90E030C0D8
:104400000A30110589F549E050E060E070E08AEC7F
:1044100096E070D46091EF067091F0068823F1F079
:104420008091D20690E068177907D9F48EEE90E07B
:10443000D7D988E0EAECF6E0DE01199601900D92FA
:104440008A95E1F72091EF063091F0062F5F3F4FFC
:1044500033273093F0062093EF060AC08FEE90E0EA
:10446000BFD91A82198204C00A3011050CF4A3CFF7
:1044700081E029813A8124C000E010E078E0672ED5
:10448000712C29E030E02C0F3D1F200F311FAE01B1
:104490004F5F5F4FB301601B710B8091E0069091FD
:1044A000E10666D9982E29813A81811108C0020F50
:1044B000131F0115110519F00830110514F381E0DF
:1044C000121613060CF080E09110B3C2882309F491
:1044D000B3C28091E306811104C019861A861B8637
:1044E0001C8689859A85AB85BC858031910508F04D
:1044F000A3C2FC018827EE56FF4F8F4FCEC6D601D0
:104500001696ED91FC91179780819181A281B381DC
:1045100089839A83AB83BC83AE014F5F5F4F64E0B6
:1045200070E085E190E07DC18D859E85D7D90097AB
:1045300031F42FEF3FEFA90161E070E00EC0FC0104
:1045400080809180A280B380A701C501B4010E9440
:10455000A109A501940160E070E08DE190E067C2DF
:104560008D859E85BBD9009721F42FEF3FEFA901E0
:1045700010C0DC018D909D90AD90BD90AD01950176
:104580008401B701C6010E943D06A501940188235C
:1045900019F061E070E002C060E070E08BE190E053
:1045A00046C28D859E859AD9009721F42FEF3FEF63
:1045B000A9010FC0FC0181909190A190B190BF0121
:1045C000A5019401C6010E944608A5019401882313
:1045D00019F061E070E002C060E070E08CE190E012
:1045E00026C2D6011496ED91FC9115970081118198
:1045F000F80182809380A080B18060E1462E512C2A
:10460000612C712C49825A826B827C8288E090E016
:10461000A0E0B0E08D839E83AF83B8879E012F5EBC
:104620003F4FAE014F5F5F4F68E070E08091E00662
:104630009091E1067ED8882319F000E010E0BAC01E
:1046400089899A890897C9F7D801ED90FC90B8E05C
:10465000EB0EF11CEE0CFF1CEE0CFF1CC70153D639
:104660008C01892B51F349825A826B827C82C7016B
:104670000F2C000CAA0BBB0B8D839E83AF83B887D6
:104680009E012F5E3F4FAE014F5F5F4F68E070E0CD
:104690008091E0069091E1064CD881118BC0898908
:1046A0009A89089709F086C0D6011296ED91FC917F
:1046B00013974081518162817381D8014D935D933D
:1046C0006D937C931397448155816681778114960D
:1046D0004D935D936D937C931797408551856285CB
:1046E000738518964D935D936D937C931B9784858A
:1046F0009585A685B785F80184879587A687B787AE
:10470000108A118A128A138A84E090E0A0E0B0E057
:10471000848B958BA68BB78B8091840290918502B8
:10472000A0E0B0E0808F918FA28FB38FC5010B2CDA
:10473000000CAA0BBB0B848F958FA68FB78FF4014B
:10474000D801909680E090E08A159B0554F4419141
:10475000519160E070E04D935D936D937D93019670
:10476000F3CF9E012F5E3F4FA801B7018091E00675
:104770009091E1060E94991B81111CC089899A8938
:104780008E159F05B9F4A70160E070E0C801AED2B4
:104790008B8B9E012F5E3F4FAE014D5E5F4F61E000
:1047A00070E08091E0069091E1060E94991B81E003
:1047B0008093E306C80167960FB6F894DEBF0FBE7C
:1047C000CDBFDF91CF911F910F91FF90EF90DF90C0
:1047D000CF90BF90AF909F908F907F906F905F90A1
:1047E0004F903F9025C68D859E85AF85B8890097EF
:1047F000A105B10521F481E08093E2061DC16ED8C8
:10480000009789F481E090E0A0E0B0E089839A838A
:10481000AB83BC83AE014F5F5F4F64E070E082E129
:1048200090E06EDA09C1BC01C6010E944B041982F6
:104830001A821B821C82AE014F5F5F4F64E070E002
:1048400082E190E05DDA8111F7C0D5CFD6011496F0
:10485000ED91FC9115970190F081E02D0085118577
:104860008FEF89830115110509F472C0D8016D908D
:104870007C90A280B38020E030E060E070E080E0D7
:1048800090E0861597050CF5F801A281B381A20F7F
:10489000B31F1296ED91FC911397EE0FFF1FEA0DD7
:1048A000FB1D0190F081E02D16960D90BC91A02D7E
:1048B000EA9FA001EB9F500DFA9F500D1124640F49
:1048C000751F0196285F3F4FDCCF83E190E00E9487
:1048D000F01B8111B1C0C12CD12CE12CF12CE614BC
:1048E000F7047CF5D8011296ED91FC911397EC0D2D
:1048F000FD1D80809180A281B381AA0FBB1FAA0DEC
:10490000BB1D2D913C9186819781289F2001299F75
:10491000500C389F500C1124B201C4010E942B1C72
:10492000382E920140E050E06981C401CBD18983E7
:10493000B8E0CB0ED11C31107FC0EFEFEE1AFE0AAB
:10494000CECF61E070E0CE0101960E942B1C74C0B6
:1049500060E070E083E190E00E94F01B6DC040E0F9
:1049600050E060E070E081E190E0CAD9811164C05C
:10497000812C912C5401C501B4010E942406809120
:104980002404882321F0A701C501B40141DAA7015D
:10499000C501B4010E9424058A9489288A288B289D
:1049A00029F0812C912C54018394E5CF1092E406D8
:1049B0001092E3061092F0061092EF068091E00646
:1049C0009091E1060E94E81B37C081E090E090934F
:1049D00026048093250440E050E060E070E086E12A
:1049E00090E01FCF81E0D5018C9326C08D859E85F8
:1049F0000E946E1C009731F42FEF3FEFA90161E098
:104A000070E013C0FC012081318142815381CA01D1
:104A1000B9012C8B3D8B4E8B5F8B0E94010A2C8938
:104A20003D894E895F8960E070E08EE190E09AD91F
:104A300003C0C7010E944F1C67960FB6F894DEBFF3
:104A40000FBECDBFDF91CF911F910F91FF90EF90DF
:104A5000DF90CF90BF90AF909F908F907F906F909E
:104A60005F904F903F900895CF92DF92EF92FF9228
:104A7000CF93DF93EC01C12CD12C7601C701B60195
:104A80000E942406AE01C701B601C2D9AE01C7011A
:104A9000B6010E9424058091DC069091DD06009706
:104AA00029F0C6D41092DD061092DC06CA94CD28F7
:104AB000CE28CF2829F0C12CD12C7601C394DECF8B
:104AC0008091E306882359F040E050E060E070E018
:104AD00084E190E015D9F82E1092E30601C0F12C84
:104AE0008091E406882341F01092E40681E090E092
:104AF00090938502809384028091E0069091E10674
:104B00000E94EB1B8091E0069091E1060E94E01B61
:104B10008F2DDF91CF91FF90EF90DF90CF90089590
:104B2000CF93DF93EC01AC0160E070E0CB010E9419
:104B3000670EAE0161E070E080E090E0DF91CF9120
:104B40000C94670E60E070E0CB010E94D30E61E030
:104B500070E080E090E00C94D30ECF92DF92EF9261
:104B6000FF920F931F93CF93DF93EC016A017B01B8
:104B700000E010E098010E94510A01E010E020E0FE
:104B800030E0B701A601CE010E94510ADF91CF911A
:104B90001F910F91FF90EF90DF90CF90089568EEF6
:104BA00073E080E090E00E94911480E090E008952E
:104BB00026E040E050E16EE070E08EE394E00E9479
:104BC0008F168EE394E00E94D915892B29F08EE38D
:104BD00094E00E94F315F5CF80E090E00895AF9245
:104BE000BF92CF92DF92EF92FF920F931F93CF93DA
:104BF000DF931F921F92CDB7DEB77A018901F901C9
:104C0000118210828EE394E069837A830E94D91521
:104C100069817A81892B99F15B01DD24D39485E642
:104C2000C82E8091F106811124C08EE394E00E9489
:104C3000F31585369105A9F7D092F106F501C192D9
:104C40005F01F80180819181019691838083E9CF92
:104C50008EE394E00E94F3158F3FFFEF9F0749F02A
:104C6000F50181935F01F801808191810196918323
:104C70008083F801808191818E159F0548F380E043
:104C800090E00F900F90DF91CF911F910F91FF90C7
:104C9000EF90DF90CF90BF90AF9008950F931F9348
:104CA000CF93DF93EA0189018EE394E00E946E19AD
:104CB000F801D183C08380E090E0DF91CF911F9114
:104CC0000F910895DC01A40FB51F240F351FAD010E
:104CD000481B590B4217530738F4ED91E627F0E0D3
:104CE000E55BFD4F6491F3CF862F08959A01AB01E8
:104CF0006FEFE8CFCF93FC01E60FF71FE40FF51F2E
:104D0000C081F4DF91E0C81390E0892FCF9108951E
:104D10008091F30691E0980F9093F306882349F071
:104D200021E030E03093F5062093F4068093F306FB
:104D300008950E94DD018091F30681508093F3066F
:104D40000C947710FF920F931F93CF93DF931F92D2
:104D50001F92CDB7DEB7FF24F394FA820E94CA14E3
:104D60000E94BC1A0091180310911903F8011182D6
:104D7000108260E070E080E090E00E9480100E946D
:104D80008C027894C80182960E947F1081E090E0A6
:104D90000E947B101982AE014F5F5F4F61E070E0AF
:104DA000F801828193810E9425108981882311F066
:104DB000F801F6A20E948610F8940E94E01AF80109
:104DC00080819181892B19F481E096A1911180E075
:104DD0008A837894FF24F3948A81882371F119825D
:104DE000AE014F5F5F4F61E070E0F8018281938117
:104DF0000E9461108981882311F0F801F6A2F80160
:104E000080819181892B31F481E096A1911103C0B9
:104E100080E001C081E08093F2069091F20681E08B
:104E2000911180E08A838A81882319F00E94E11A17
:104E300002C080E090E08A83CFCF0E941E0381E011
:104E400090E00E947D10F89480E090E00F900F9029
:104E5000DF91CF911F910F91FF9008955058BB277C
:104E6000AA270ED044C135D130F03AD120F031F428
:104E70009F3F11F41EF42AC10EF4E095E7FB20C118
:104E8000E92F46D180F3BA176207730784079507A5
:104E900018F071F49EF55EC10EF4E0950B2EBA2F5A
:104EA000A02D0B01B90190010C01CA01A001112430
:104EB000FF27591B99F0593F50F4503E68F11A16DC
:104EC000F040A22F232F342F4427585FF3CF46956D
:104ED00037952795A795F0405395C9F77EF41F168F
:104EE000BA0B620B730B840BBAF09150A1F0FF0F59
:104EF000BB1F661F771F881FC2F70EC0BA0F621F45
:104F0000731F841F48F4879577956795B795F79534
:104F10009E3F08F0B3CF9395880F08F09927EE0FC6
:104F2000979587950895A8D008F481E008950CD04E
:104F3000DEC0D6D040F0CDD030F021F45F3F19F084
:104F4000BFC0511108C1C2C0E3D098F39923C9F37F
:104F50005523B1F3951B550BBB27AA27621773077F
:104F6000840738F09F5F5F4F220F331F441FAA1F33
:104F7000A9F333D00E2E3AF0E0E830D091505040F3
:104F8000E695001CCAF729D0FE2F27D0660F771FA1
:104F9000881FBB1F261737074807AB07B0E809F083
:104FA000BB0B802DBF01FF2793585F4F2AF09E3F18
:104FB000510568F085C0CFC05F3FECF3983EDCF34D
:104FC000869577956795B795F7959F5FC9F7880F91
:104FD000911D9695879597F90895E1E0660F771FE3
:104FE000881FBB1F621773078407BA0720F0621B74
:104FF000730B840BBA0BEE1F88F7E0950895E894C5
:1050000009C097FB3EF490958095709561957F4F10
:105010008F4F9F4F9923A9F0F92F96E9BB279395BE
:10502000F695879577956795B795F111F8CFFAF4CE
:10503000BB0F11F460FF1BC06F5F7F4F8F4F9F4FFF
:1050400016C0882311F096E911C0772321F09EE85D
:10505000872F762F05C0662371F096E8862F70E0C3
:1050600060E02AF09A95660F771F881FDAF7880F9D
:105070009695879597F90895990F0008550FAA0BF3
:10508000E0E8FEEF16161706E807F907C0F012165B
:105090001306E407F50798F0621B730B840B950B5E
:1050A00039F40A2661F0232B242B252B21F40895B3
:1050B0000A2609F4A140A6958FEF811D811D089550
:1050C00097F99F6780E870E060E008959FEF80ECBB
:1050D000089500240A94161617061806090608955E
:1050E00000240A9412161306140605060895092EC4
:1050F0000394000C11F4882352F0BB0F40F4BF2B33
:1051000011F460FF04C06F5F7F4F8F4F9F4F089572
:1051100057FD9058440F551F59F05F3F71F0479568
:10512000880F97FB991F61F09F3F79F0879508954D
:10513000121613061406551FF2CF4695F1DF08C06C
:10514000161617061806991FF1CF86957105610589
:1051500008940895E894BB2766277727CB0197F931
:1051600008958ADF08F48FEF08950BD0C0CFB1DF28
:1051700028F0B6DF18F0952309F0A2CFA7CF1124AD
:10518000EACFC6DFA0F3959FD1F3950F50E0551FEE
:10519000629FF001729FBB27F00DB11D639FAA278C
:1051A000F00DB11DAA1F649F6627B00DA11D661FDB
:1051B000829F2227B00DA11D621F739FB00DA11DFC
:1051C000621F839FA00D611D221F749F3327A00DB6
:1051D000611D231F849F600D211D822F762F6A2F52
:1051E00011249F5750408AF0E1F088234AF0EE0FD7
:1051F000FF1FBB1F661F771F881F91505040A9F7E4
:105200009E3F510570F05CCFA6CF5F3FECF3983E18
:10521000DCF3869577956795B795F795E7959F5F4A
:10522000C1F7FE2B880F911D9695879597F90895E4
:1052300097FB072E16F4009406D077FD08D035D0E2
:1052400007FC05D03EF4909581959F4F0895709589
:1052500061957F4F0895A1E21A2EAA1BBB1BFD0189
:105260000DC0AA1FBB1FEE1FFF1FA217B307E40745
:10527000F50720F0A21BB30BE40BF50B661F771F9D
:10528000881F991F1A9469F760957095809590957D
:105290009B01AC01BD01CF010895EE0FFF1F881FD8
:1052A0008BBF0790F691E02D1994AA1BBB1B51E10F
:1052B00007C0AA1FBB1FA617B70710F0A61BB70B86
:1052C000881F991F5A95A9F780959095BC01CD012B
:1052D00008950F931F93CF93DF93869F8001879F3D
:1052E000100D969F100D1124C8010DD0EC010097F0
:1052F00021F0A80160E070E03CD1CE01DF91CF91B8
:105300001F910F910895CF93DF938230910510F490
:1053100082E090E0E0912907F0912A0720E030E058
:10532000C0E0D0E0309711F1408151814817590712
:10533000C0F04817590761F482819381209719F0D2
:105340009B838A832BC090932A078093290726C0CA
:105350002115310519F04217530718F49A01BE01BF
:10536000DF01EF010280F381E02DDCCF2115310553
:1053700009F1281B390B2430310590F412968D91D8
:105380009C9113976115710521F0FB019383828332
:1053900004C090932A0780932907FD01329644C0E8
:1053A000FD01E20FF31F81939193225031092D9358
:1053B0003C933AC02091270730912807232B41F4D2
:1053C000209102023091030230932807209327078F
:1053D00020910002309101022115310541F42DB7D1
:1053E0003EB74091040250910502241B350BE09119
:1053F0002707F0912807E217F307A0F42E1B3F0BB5
:105400002817390778F0AC014E5F5F4F2417350736
:1054100048F04E0F5F1F5093280740932707819352
:10542000919302C0E0E0F0E0CF01DF91CF910895C9
:105430000F931F93CF93DF93009709F48CC0FC0167
:105440003297138212820091290710912A070115C1
:10545000110581F420813181820F931F209127074C
:10546000309128072817390779F5F0932807E0933A
:10547000270771C0D80140E050E0AE17BF0750F4D5
:1054800012962D913C911397AD012115310509F12B
:10549000D901F3CF9D01DA013383228360817181C9
:1054A000860F971F8217930769F4EC0128813981D1
:1054B000260F371F2E5F3F4F318320838A819B81C8
:1054C00093838283452B29F4F0932A07E0932907DD
:1054D00042C01396FC93EE931297ED0149915991B6
:1054E0009E01240F351FE217F30771F4808191812B
:1054F000840F951F029611969C938E9382819381BF
:1055000013969C938E931297E0E0F0E0D8011296E8
:105510008D919C911397009719F0F8018C01F6CFAB
:105520008D919C9198012E5F3F4F820F931F209188
:105530002707309128072817390769F4309729F48D
:1055400010922A071092290702C013821282109328
:10555000280700932707DF91CF911F910F9108959E
:10556000FB01DC0102C001900D9241505040D8F780
:105570000895DC0101C06D9341505040E0F708955B
:10558000FB01DC018D91019080190110D9F3990B79
:065590000895F894FFCF1E
:1055960000002B0780000100000003000E027A02C3
:1055A6000700000001007E020500000001008002E5
:1055B60003000000020003002A02FA0600000000B1
:1055C6000100FE06040000000100F60600000000CF
:1055D6000100AB02B202BC02BB02C402C302CD028E
:1055E600CC02D502DF02EA02F002FA02030304004B
:1055F6000400010001000200020004000400010092
:105606000400020002000400080031030000C80084
:105616000305010101001F121F121F121F121F1284
:105626001F121F121F12FF53696D756C6174696F2B
:105636006E2066696E6973686564007265616C5F89
:1056460054007265616C33325F540075696E74384C
:105656005F540075696E7431365F540075696E74F7
:1056660033325F5400626F6F6C65616E5F54006623
:10567600636E5F63616C6C5F5400696E745F5400A7
:10568600706F696E7465725F5400616374696F6EE2
:105696005F540074696D65725F75696E7433325F4D
:1056A600706169725F54000100070000000049162E
:1056B6006E19D915F315E5152816000000002419F2
:1056C6002D77002D69676E6F72652D6172670043D5
:1056D6006F756C64206E6F742063726561746520EB
:1056E60065787465726E616C206D6F646520757384
:1056F600657220646174612E20204F7574206F6678
:0A570600206D656D6F72792E0A00A8
:00000001FF
